:020000040800F2
:1000000048040020450100083908000831080008AC
:1000100035080008B9010008E50E000800000000DE
:10002000000000000000000000000000F9090008C6
:100030006D06000800000000C1080008B90C0008A7
:100040005F0100085F0100085F0100085F01000810
:100050005F0100085F0100085F0100085F01000800
:100060005F0100085F0100085F0100085F010008F0
:100070005F0100085F0100085F0100085F010008E0
:100080005F0100085F0100085F0100085F010008D0
:100090008D0E00085F0100085F0100085F01000885
:1000A0005F0100085F0100085F0100085F010008B0
:1000B0005F0100085F0100085F0100085F010008A0
:1000C0005F0100085F0100085F0100085F01000890
:1000D0005F0100085F0100085F0100085F01000880
:1000E0005F0100085F0100085F0100085F01000870
:1000F0005F0100085F0100085F0100085F01000860
:100100005F0100085F0100085F0100085F0100084F
:100110005F0100085F0100085F0100085F0100083F
:100120005F0100085F0100085F0100085F0100082F
:10013000DFF80CD000F02EF800480047A1100008AE
:10014000480400200648804706480047FEE7FEE7CF
:10015000FEE7FEE7FEE7FEE7FEE7FEE7FEE7FEE777
:10016000BD0C00083101000830B50B4601460020E7
:100170002022012409E021FA02F59D4205D303FA69
:1001800002F5491B04FA02F52844151EA2F10102EA
:10019000F1DC30BD064C074D06E0E06840F001039D
:1001A00094E8070098471034AC42F6D3FFF7C4FF39
:1001B000581100087811000800BFFEE710B500F0E4
:1001C000CFF800F0B7F900F087F900F0A1F810BD02
:1001D00010B504460B48844209D10121480600F0BD
:1001E00081FB00214FF0007000F07CFB08E0012152
:1001F000880600F077FB00214FF0806000F072FB72
:1002000010BD00000064004010B50021837A012277
:1002100002FA03F13D4A126842F001023B4B1A60B8
:100220003A4A1C3212688A43384B1C331A60027BEC
:10023000CAB9364A0C3212688A43344B0C331A60FE
:100240004288C38842EA0343304A4032847A42F803
:1002500034300288838842EA03432C4A4032847A4D
:1002600002EBC4025360027B012A19D1274A0C32E7
:1002700012680A43254B0C331A604288038842EA0D
:100280000343224A4032847A42F83430C288838859
:1002900042EA03431D4A4032847A02EBC4025360AF
:1002A000C27A3AB9194A121D12688A43174B1B1DAC
:1002B0001A6006E0154A121D12680A43134B1B1DF3
:1002C0001A60028932B9114A143212688A430F4BFC
:1002D00014331A600289012A06D10C4A14321268BA
:1002E0000A430A4B14331A60427B012A06D1074A9B
:1002F0001C3212680A43054B1C331A60034A126809
:1003000022F00102014B1A6010BD0000006600409F
:100310001FB500208DF80A008DF80B0001208DF824
:100320000C000020ADF8000049F6A400ADF8020072
:100330004FF6FF70ADF80400ADF806000020ADF8F0
:10034000080001208DF80D006846FFF75DFF0122CF
:100350000221024800F02CF81FBD0000006400409C
:1003600008B50121480600F0ADFA0121042000F093
:10037000C9FA48208DF803004FF40060ADF8000082
:1003800003208DF802006946084800F0BFF91820E4
:100390008DF803004FF48050ADF8000003208DF875
:1003A00002006946014800F0B1F908BD00080140AB
:1003B0001AB143690B43436102E043698B434361D4
:1003C000704730B5024600200023146824F0020470
:1003D0001460146844F00104146000E05B1C54686D
:1003E00004F001041CB94FF6FF74A342F6D154681F
:1003F00004F001040CB900206CE08C79012C04D1CC
:10040000146844F08004146003E0146824F080044D
:100410001460CC79012C04D1146844F040041460B9
:1004200003E0146824F0400414600C7A012C04D119
:10043000146844F02004146003E0146824F02004DD
:1004400014604C7A012C04D1146844F01004146038
:1004500003E0146824F0100414608C7A012C04D199
:10046000146844F00804146003E0146824F00804DD
:100470001460CC7A012C04D1146844F00404146094
:1004800003E0146824F0040414608C78A407CD7889
:1004900044EA05640D7944EA05444D7944EA05547B
:1004A0000D886D1E2C43D461146824F0010414607F
:1004B000002300E05B1C546804F001041CB14FF6FB
:1004C000FF74A342F6D1546804F001040CB100207B
:1004D00000E0012030BD00000EB50121480600F00B
:1004E000F1F91348FFF774FE684600F0AFF80020FA
:1004F0008DF8060001208DF807008DF80800002017
:100500008DF809008DF80A008DF80B008DF80200B7
:100510008DF8030004208DF8040002208DF80500FA
:100520000420ADF8000069460148FFF74AFF0EBD00
:100530000064004008B54FF4C06000F0B7F9142023
:100540008DF8000000208DF801008DF802000120D8
:100550008DF80300684600F071F908BD10B500F58C
:10056000D87303EB01131B6803F004031372137AAF
:1005700053B900F5D87303EB01131B6840F2FF7405
:1005800004EA5353136009E000F5D87303EB011339
:100590001B686FF0604404EAD303536000F5D8731E
:1005A00003EB01131B6803F00203537200F5D873C9
:1005B00003EB01135B6803F00F03937200F5D8732C
:1005C00003EB01135B681B0AD37400F5D87303EBCC
:1005D00001139B68D37200F5D87303EB01139B687A
:1005E0001C0A147300F5D87303EB01139B681C0CF1
:1005F000547300F5D87303EB01139B681B0E9373C0
:1006000000F5D87303EB0113DB68D37300F5D873DF
:1006100003EB0113DB681C0A147400F5D87303EBB9
:100620000113DB681C0C547400F5D87303EB011341
:10063000DB681B0E937421B9C36843F02003C360C9
:1006400003E0036943F02003036110BD00218171C1
:10065000C171017241728172C1728170C1700321D6
:100660000171022141710121018070477047000032
:1006700000B585B00121042000F044F901214804AF
:1006800000F020F90420ADF8100018208DF81300B8
:1006900003208DF8120004A91A4800F037F808204A
:1006A000ADF8100004208DF8130004A9154800F0DF
:1006B0002DF84FF4E13000900020ADF80400ADF8C3
:1006C0000600ADF80800ADF80C000C20ADF80A00EB
:1006D00069460D4800F06AFB40210B4800F01EFB04
:1006E000012240F22551084800F03AFB012240F275
:1006F0002771054800F034FB0121034800F017FB87
:1007000005B000BD00080140004400402DE9F04163
:10071000024600250026002000230024002791F82F
:1007200003C00CF00F0591F803C00CF0100CBCF1E5
:10073000000F03D091F802C04CEA050591F800C003
:10074000BCF1000F31D0146800202BE04FF0010CF9
:100750000CFA00F3B1F800C00CEA03069E4220D167
:1007600083004FF00F0C0CFA03F7BC4305FA03FCAF
:100770004CEA040491F803C0BCF1280F06D14FF0F5
:10078000010C0CFA00FCC2F814C00AE091F803C096
:10079000BCF1480F05D14FF0010C0CFA00FCC2F877
:1007A00010C0401C0828D1D31460B1F800C0BCF1BF
:1007B000FF0F34DD546800202EE000F1080C4FF0EC
:1007C000010808FA0CF3B1F800C00CEA03069E42D7
:1007D00021D183004FF00F0C0CFA03F7BC4305FA4C
:1007E00003FC4CEA040491F803C0BCF1280F05D1C6
:1007F00000F1080C08FA0CF8C2F8148091F803C054
:10080000BCF1480F07D100F1080C4FF0010808FABD
:100810000CF8C2F81080401C0828CED35460BDE804
:10082000F081416170470AB1016100E041617047A8
:1008300000BFFEE700BFFEE77047000070B5002173
:1008400000230F22C47804B3154C246804F4E06438
:10085000C4F5E064210AC1F10403CA40447804FAF3
:1008600003F184781440214309010E4C0678A15508
:10087000047804F01F050124AC4005786D11AD002B
:1008800005F1E025C5F8004109E0047804F01F05F2
:100890000124AC40044D0678761145F8264070BD21
:1008A0000CED00E000E400E080E100E002490143DB
:1008B000024A1160704700000000FA050CED00E0EC
:1008C0007047000029B1064AD2690243044BDA613D
:1008D00004E0034AD2698243014BDA6170470000A9
:1008E0000010024029B1064A12690243044B1A6102
:1008F00004E0034A12698243014B1A617047000009
:100900000010024029B1064A92690243044B9A61E1
:1009100004E0034A92698243014B9A6170470000E8
:100920000010024030B500210022002400232D4D8C
:100930006D6805F00C0121B1042905D0082923D1E7
:1009400005E0294D056022E0274D05601FE0254D9B
:100950006D6805F47012234D6D6805F4803402252E
:1009600005EB92421CB9214D554305600BE01D4D2E
:100970006D6805F400351DB11C4D5543056002E05E
:10098000194D5543056002E0174D056000BF00BFDB
:10099000144D6D6805F0F0010909154D6B5C056893
:1009A000DD4045600F4D6D6805F4E061090A104DAA
:1009B0006B5C4568DD4085600A4D6D6805F46051EB
:1009C000C90A0B4D6B5C4568DD40C560054D6D681F
:1009D00005F44041890B074D6B5CC568B5FBF3F529
:1009E000056130BD0010024000127A0000093D0090
:1009F0001400002024000020704710B500F002F819
:100A000010BD00000CB50020019000903348006834
:100A100040F480303149086000BF3048006800F47D
:100A2000003000900198401C0190009818B901987E
:100A3000B0F5A06FF1D12948006800F4003010B182
:100A40000120009001E0002000900098012843D18F
:100A50002348006840F010002149086008460068FB
:100A600020F0030008600846006840F002000860BB
:100A70001A48406819494860084640684860084676
:100A8000406840F4806048600846406820F47C106C
:100A900048600846406840F4E8104860084600682E
:100AA00040F08070086000BF0C48006800F00070E3
:100AB0000028F9D00948406820F003000749486041
:100AC0000846406840F00200486000BF03484068A4
:100AD00000F00C000828F9D10CBD00000010024005
:100AE0000020024008B501210820FFF70BFF10206D
:100AF0008DF8030040F60340ADF8000003208DF8A8
:100B0000020069460448FFF701FE40F6034102482F
:100B1000FFF787FE08BD0000000C014070B50546D8
:100B20000C461646E1023246284600F001F870BD38
:100B30002DE9F04104460D461646002720E05CB939
:100B400011480078401C10490870084600780328B6
:100B500010DD002008700DE0012C0BD10A48007850
:100B6000012802DA04200849087007480078401E6E
:100B70000549087031460448007800F007F87F1CEA
:100B8000AF42DCD3BDE8F0812C00002070B50546F3
:100B90000C4635B1012D10D0022D1AD0032D30D1C5
:100BA00023E0012211461B48FFF73DFE002240F6DC
:100BB00002411848FFF737FE24E0012202211548C0
:100BC000FFF731FE002240F601411248FFF72BFEED
:100BD00018E0012291020F48FFF725FE002240F69F
:100BE00003010C48FFF71FFE0CE00122D102094867
:100BF000FFF719FE002240F203410648FFF713FEFB
:100C000000E000BF00BF204600F010F800F004F83C
:100C100070BD0000000C014010B540F603410248D1
:100C2000FFF7FFFD10BD0000000C014071B51F482B
:100C300000684FF47A73B0FBF3F2B2F1807F00D317
:100C40001DE022F07F40401E4FF0E023586158170E
:100C50000F23002807DA1C07260E154C00F00F059D
:100C60002D1F665503E01C07250E124C255400BFAE
:100C700000204FF0E02398610720186100BF002199
:100C800008E000BF4FF0E020006900F48030002849
:100C9000F8D0491C00988142F3D34FF0E02000695E
:100CA00020F001004FF0E022106178BD000000202C
:100CB00018ED00E000E400E07047000010B51348B4
:100CC000006840F00100114908600846406810497A
:100CD00008400E494860084600680E4908400B4924
:100CE00008600846006820F48020086008464068D4
:100CF00020F4FE0048604FF41F008860FFF77DFE7F
:100D00004FF000600449086010BD00000010024070
:100D10000000FFF8FFFFF6FE08ED00E001F40072AE
:100D2000B2F5007F00D100BFCA430280704721B1F5
:100D3000828942F40052828104E082894DF6FF7379
:100D40001A408281704702460020B1F5007F00D131
:100D500000BF13880B400BB1012000E0002070475A
:100D6000F0B50346002400260025002040F66A174F
:100D7000B94200D100BF1846C1F3421401F01F066A
:100D8000012707FA06F5012C01D10C3004E0022CF2
:100D900001D1103000E014301AB107682F4307600A
:100DA00002E00768AF430760F0BD00002DE9F0479F
:100DB00086B005460E460024A24600BFA146002785
:100DC000B08900B100BF2F462C8A4CF6FF7004405A
:100DD000F08804432C82AC894EF6F3100440B088AE
:100DE00031890843718908430443AC81AC8A4FF6CA
:100DF000FF400440B0890443AC8201A8FFF792FD94
:100E00001F48874202D1DDF810A001E0DDF80CA0F8
:100E1000A88900F4004040B10AEBCA0000EB0A10B8
:100E200031684900B0FBF1F807E00AEBCA0000EBBB
:100E30000A1031688900B0FBF1F86420B8FBF0F0CB
:100E400004012009642101FB1089A88900F40040F5
:100E500040B1322000EBC900B0FBF1F000F0070018
:100E6000044308E0322000EB09106421B0FBF1F0EC
:100E700000F00F0004432C8106B0BDE8F0870000AD
:100E800000380140C1F308028280704710B5124A51
:100E900000211248FFF762FB0F48406841F214310D
:100EA000884218D10C48007A042814D10A48807A64
:100EB000012810D10848C07A012802D108490860E9
:100EC00009E00548C07A022802D10549086002E01D
:100ED00000200349086010BD340000200064004079
:100EE0002800002000BFFEE70FB4054B10B503A992
:100EF000044A029800F018F810BC5DF814FB0000DA
:100F00007D1000083000002002E008C8121F08C150
:100F1000002AFAD170477047002001E001C1121F7A
:100F2000002AFBD1704700002DE9FF4F89B09B4696
:100F30000446002506E025280BD05A460B99904719
:100F4000641C6D1C20780028F5D10DB02846BDE842
:100F5000F08F0027B8460122474900E0074314F804
:100F6000013F203B02FA03F00842F7D120782E28F7
:100F700019D114F8010F47F004072A280ED06FF09A
:100F80002F022078A0F1300109290CD808EB880144
:100F900002EB410100EB0108641CF2E70A98641CB3
:100FA00050F8048B0A9020780028CED0642808D00E
:100FB000692806D075281ED05A460B9990476D1C9B
:100FC00058E00A994FF00A0901C90A91002802DA8B
:100FD00040422D2102E0390504D52B218DF8201047
:100FE000012103E0F90704D02021F7E78A4608AE83
:100FF0000DE00021FAE70A994FF00A0901C90A91A8
:10100000F7E74946FFF7B0F8303106F8011D002830
:10101000F7D1ADEB060000F12009780701D44FF0BD
:101020000108C84502DDA8EB090000E00020804669
:10103000002706E008A85A46C05D0B9990476D1C32
:101040007F1C5745F6DB04E030205A460B99904749
:101050006D1CB8F10001A8F10108F5DC05E016F8F7
:10106000010B5A460B9990476D1CB9F10001A9F18B
:101070000109F4DC641C65E70928010070B5044629
:101080000D46E1B20548FFF7FDFE00BF8021034891
:10109000FFF759FE0028F9D0204670BD00440040FB
:1010A000FFF720FDFFF7E4FAFFF788F814A0FFF739
:1010B0001BFF1AA0FFF718FF20E01E480068012858
:1010C0000BD11C4801681CA0FFF70EFF0020194936
:1010D000086003220121FFF721FD1648006802285D
:1010E0000CD11448016818A0FFF7FEFE002011493A
:1010F0000860032201210846FFF710FDDDE700002C
:101100000D0AD2D1CAB9D3C343414EB7A2CBCDCA7F
:10111000FDBEDDB0FCA3A10D0A0000000D0AB7A2C0
:10112000CBCDB5C4B1A8CEC4C4DAC8DDCEAAA3BAAB
:101130000D0A000028000020D7B4CCAC2564D5FDF2
:10114000D7AA0D0A00000000D7B4CCAC2564B7B410
:10115000D7AA0D0A00000000781100080000002046
:1011600034000000080F0008AC1100083400002013
:1011700014040000180F000800A24A040000000038
:101180000000000001020304060708090000000037
:101190000102030401020304060708090204060809
:0C11A00000000000000000000000000043
:0400000508000131BD
:00000001FF
